{
  "contractName": "GoFreakingDoIt",
  "abi": [
    {
      "constant": true,
      "inputs": [
        {
          "name": "",
          "type": "uint256"
        }
      ],
      "name": "activeGoals",
      "outputs": [
        {
          "name": "hash",
          "type": "bytes32"
        },
        {
          "name": "owner",
          "type": "address"
        },
        {
          "name": "description",
          "type": "string"
        },
        {
          "name": "amount",
          "type": "uint256"
        },
        {
          "name": "supervisorEmail",
          "type": "string"
        },
        {
          "name": "creatorEmail",
          "type": "string"
        },
        {
          "name": "deadline",
          "type": "string"
        },
        {
          "name": "emailSent",
          "type": "bool"
        },
        {
          "name": "completed",
          "type": "bool"
        }
      ],
      "payable": false,
      "stateMutability": "view",
      "type": "function"
    },
    {
      "constant": true,
      "inputs": [
        {
          "name": "",
          "type": "bytes32"
        }
      ],
      "name": "goals",
      "outputs": [
        {
          "name": "hash",
          "type": "bytes32"
        },
        {
          "name": "owner",
          "type": "address"
        },
        {
          "name": "description",
          "type": "string"
        },
        {
          "name": "amount",
          "type": "uint256"
        },
        {
          "name": "supervisorEmail",
          "type": "string"
        },
        {
          "name": "creatorEmail",
          "type": "string"
        },
        {
          "name": "deadline",
          "type": "string"
        },
        {
          "name": "emailSent",
          "type": "bool"
        },
        {
          "name": "completed",
          "type": "bool"
        }
      ],
      "payable": false,
      "stateMutability": "view",
      "type": "function"
    },
    {
      "constant": true,
      "inputs": [],
      "name": "owner",
      "outputs": [
        {
          "name": "",
          "type": "address"
        }
      ],
      "payable": false,
      "stateMutability": "view",
      "type": "function"
    },
    {
      "constant": false,
      "inputs": [
        {
          "name": "newOwner",
          "type": "address"
        }
      ],
      "name": "transferOwnership",
      "outputs": [],
      "payable": false,
      "stateMutability": "nonpayable",
      "type": "function"
    },
    {
      "payable": true,
      "stateMutability": "payable",
      "type": "fallback"
    },
    {
      "anonymous": false,
      "inputs": [
        {
          "indexed": false,
          "name": "_owner",
          "type": "address"
        },
        {
          "indexed": false,
          "name": "_description",
          "type": "string"
        },
        {
          "indexed": false,
          "name": "_amount",
          "type": "uint256"
        },
        {
          "indexed": false,
          "name": "_supervisorEmail",
          "type": "string"
        },
        {
          "indexed": false,
          "name": "_creatorEmail",
          "type": "string"
        },
        {
          "indexed": false,
          "name": "_deadline",
          "type": "string"
        },
        {
          "indexed": false,
          "name": "_emailSent",
          "type": "bool"
        },
        {
          "indexed": false,
          "name": "_completed",
          "type": "bool"
        }
      ],
      "name": "setGoalEvent",
      "type": "event"
    },
    {
      "anonymous": false,
      "inputs": [
        {
          "indexed": false,
          "name": "hash",
          "type": "bytes32"
        },
        {
          "indexed": false,
          "name": "_completed",
          "type": "bool"
        }
      ],
      "name": "setGoalSucceededEvent",
      "type": "event"
    },
    {
      "anonymous": false,
      "inputs": [
        {
          "indexed": false,
          "name": "hash",
          "type": "bytes32"
        },
        {
          "indexed": false,
          "name": "_completed",
          "type": "bool"
        }
      ],
      "name": "setGoalFailedEvent",
      "type": "event"
    },
    {
      "anonymous": false,
      "inputs": [
        {
          "indexed": true,
          "name": "previousOwner",
          "type": "address"
        },
        {
          "indexed": true,
          "name": "newOwner",
          "type": "address"
        }
      ],
      "name": "OwnershipTransferred",
      "type": "event"
    },
    {
      "constant": false,
      "inputs": [
        {
          "name": "_description",
          "type": "string"
        },
        {
          "name": "_supervisorEmail",
          "type": "string"
        },
        {
          "name": "_creatorEmail",
          "type": "string"
        },
        {
          "name": "_deadline",
          "type": "string"
        }
      ],
      "name": "setGoal",
      "outputs": [
        {
          "name": "",
          "type": "bytes32"
        },
        {
          "name": "",
          "type": "address"
        },
        {
          "name": "",
          "type": "string"
        },
        {
          "name": "",
          "type": "uint256"
        },
        {
          "name": "",
          "type": "string"
        },
        {
          "name": "",
          "type": "string"
        },
        {
          "name": "",
          "type": "string"
        }
      ],
      "payable": true,
      "stateMutability": "payable",
      "type": "function"
    },
    {
      "constant": true,
      "inputs": [],
      "name": "getGoalsCount",
      "outputs": [
        {
          "name": "count",
          "type": "uint256"
        }
      ],
      "payable": false,
      "stateMutability": "view",
      "type": "function"
    },
    {
      "constant": false,
      "inputs": [
        {
          "name": "_index",
          "type": "uint256"
        },
        {
          "name": "_hash",
          "type": "bytes32"
        }
      ],
      "name": "setEmailSent",
      "outputs": [],
      "payable": false,
      "stateMutability": "nonpayable",
      "type": "function"
    },
    {
      "constant": false,
      "inputs": [
        {
          "name": "_index",
          "type": "uint256"
        },
        {
          "name": "_hash",
          "type": "bytes32"
        }
      ],
      "name": "setGoalSucceeded",
      "outputs": [],
      "payable": false,
      "stateMutability": "nonpayable",
      "type": "function"
    },
    {
      "constant": false,
      "inputs": [
        {
          "name": "_index",
          "type": "uint256"
        },
        {
          "name": "_hash",
          "type": "bytes32"
        }
      ],
      "name": "setGoalFailed",
      "outputs": [],
      "payable": false,
      "stateMutability": "nonpayable",
      "type": "function"
    },
    {
      "constant": false,
      "inputs": [],
      "name": "kill",
      "outputs": [],
      "payable": false,
      "stateMutability": "nonpayable",
      "type": "function"
    }
  ],
  "bytecode": "0x6060604052336000806101000a81548173ffffffffffffffffffffffffffffffffffffffff021916908373ffffffffffffffffffffffffffffffffffffffff160217905550611e11806100536000396000f3006060604052600436106100a4576000357c0100000000000000000000000000000000000000000000000000000000900463ffffffff168063197b42b0146100a65780633aee5ec8146100d657806341c0e1b5146103895780636052dc521461039e578063720d1760146103ce5780638175e65c146106855780638da5cb5b146109a6578063acf3a250146109fb578063d0d511f914610a2b578063f2fde38b14610a54575b005b34156100b157600080fd5b6100d4600480803590602001909190803560001916906020019091905050610a8d565b005b34156100e157600080fd5b6100f76004808035906020019091905050610c6d565b604051808a600019166000191681526020018973ffffffffffffffffffffffffffffffffffffffff1673ffffffffffffffffffffffffffffffffffffffff16815260200180602001888152602001806020018060200180602001871515151581526020018615151515815260200185810385528c8181546001816001161561010002031660029004815260200191508054600181600116156101000203166002900480156101e65780601f106101bb576101008083540402835291602001916101e6565b820191906000526020600020905b8154815290600101906020018083116101c957829003601f168201915b505085810384528a8181546001816001161561010002031660029004815260200191508054600181600116156101000203166002900480156102695780601f1061023e57610100808354040283529160200191610269565b820191906000526020600020905b81548152906001019060200180831161024c57829003601f168201915b50508581038352898181546001816001161561010002031660029004815260200191508054600181600116156101000203166002900480156102ec5780601f106102c1576101008083540402835291602001916102ec565b820191906000526020600020905b8154815290600101906020018083116102cf57829003601f168201915b505085810382528881815460018160011615610100020316600290048152602001915080546001816001161561010002031660029004801561036f5780601f106103445761010080835404028352916020019161036f565b820191906000526020600020905b81548152906001019060200180831161035257829003601f168201915b50509d505050505050505050505050505060405180910390f35b341561039457600080fd5b61039c610d00565b005b34156103a957600080fd5b6103cc600480803590602001909190803560001916906020019091905050610d95565b005b34156103d957600080fd5b6103f3600480803560001916906020019091905050610f59565b604051808a600019166000191681526020018973ffffffffffffffffffffffffffffffffffffffff1673ffffffffffffffffffffffffffffffffffffffff16815260200180602001888152602001806020018060200180602001871515151581526020018615151515815260200185810385528c8181546001816001161561010002031660029004815260200191508054600181600116156101000203166002900480156104e25780601f106104b7576101008083540402835291602001916104e2565b820191906000526020600020905b8154815290600101906020018083116104c557829003601f168201915b505085810384528a8181546001816001161561010002031660029004815260200191508054600181600116156101000203166002900480156105655780601f1061053a57610100808354040283529160200191610565565b820191906000526020600020905b81548152906001019060200180831161054857829003601f168201915b50508581038352898181546001816001161561010002031660029004815260200191508054600181600116156101000203166002900480156105e85780601f106105bd576101008083540402835291602001916105e8565b820191906000526020600020905b8154815290600101906020018083116105cb57829003601f168201915b505085810382528881815460018160011615610100020316600290048152602001915080546001816001161561010002031660029004801561066b5780601f106106405761010080835404028352916020019161066b565b820191906000526020600020905b81548152906001019060200180831161064e57829003601f168201915b50509d505050505050505050505050505060405180910390f35b61079e600480803590602001908201803590602001908080601f0160208091040260200160405190810160405280939291908181526020018383808284378201915050505050509190803590602001908201803590602001908080601f0160208091040260200160405190810160405280939291908181526020018383808284378201915050505050509190803590602001908201803590602001908080601f0160208091040260200160405190810160405280939291908181526020018383808284378201915050505050509190803590602001908201803590602001908080601f01602080910402602001604051908101604052809392919081815260200183838082843782019150505050505091905050610fdd565b6040518088600019166000191681526020018773ffffffffffffffffffffffffffffffffffffffff1673ffffffffffffffffffffffffffffffffffffffff1681526020018060200186815260200180602001806020018060200185810385528a818151815260200191508051906020019080838360005b83811015610830578082015181840152602081019050610815565b50505050905090810190601f16801561085d5780820380516001836020036101000a031916815260200191505b50858103845288818151815260200191508051906020019080838360005b8381101561089657808201518184015260208101905061087b565b50505050905090810190601f1680156108c35780820380516001836020036101000a031916815260200191505b50858103835287818151815260200191508051906020019080838360005b838110156108fc5780820151818401526020810190506108e1565b50505050905090810190601f1680156109295780820380516001836020036101000a031916815260200191505b50858103825286818151815260200191508051906020019080838360005b83811015610962578082015181840152602081019050610947565b50505050905090810190601f16801561098f5780820380516001836020036101000a031916815260200191505b509b50505050505050505050505060405180910390f35b34156109b157600080fd5b6109b96118df565b604051808273ffffffffffffffffffffffffffffffffffffffff1673ffffffffffffffffffffffffffffffffffffffff16815260200191505060405180910390f35b3415610a0657600080fd5b610a29600480803590602001909190803560001916906020019091905050611904565b005b3415610a3657600080fd5b610a3e6119fc565b6040518082815260200191505060405180910390f35b3415610a5f57600080fd5b610a8b600480803573ffffffffffffffffffffffffffffffffffffffff16906020019091905050611a09565b005b6000809054906101000a900473ffffffffffffffffffffffffffffffffffffffff1673ffffffffffffffffffffffffffffffffffffffff163373ffffffffffffffffffffffffffffffffffffffff16141515610ae857600080fd5b600060016000836000191660001916815260200190815260200160002060030154111515610b1257fe5b6001806000836000191660001916815260200190815260200160002060070160016101000a81548160ff0219169083151502179055506001600283815481101515610b5957fe5b906000526020600020906008020160070160016101000a81548160ff02191690831515021790555060016000826000191660001916815260200190815260200160002060010160009054906101000a900473ffffffffffffffffffffffffffffffffffffffff1673ffffffffffffffffffffffffffffffffffffffff166108fc600160008460001916600019168152602001908152602001600020600301549081150290604051600060405180830381858888f193505050501515610c1d57600080fd5b7fc3374a5747951896bc065ffb7b6c15743ff5db3ce88ff00f3ab915417cd27088816001604051808360001916600019168152602001821515151581526020019250505060405180910390a15050565b600281815481101515610c7c57fe5b90600052602060002090600802016000915090508060000154908060010160009054906101000a900473ffffffffffffffffffffffffffffffffffffffff169080600201908060030154908060040190806005019080600601908060070160009054906101000a900460ff16908060070160019054906101000a900460ff16905089565b6000809054906101000a900473ffffffffffffffffffffffffffffffffffffffff1673ffffffffffffffffffffffffffffffffffffffff163373ffffffffffffffffffffffffffffffffffffffff16141515610d5b57600080fd5b6000809054906101000a900473ffffffffffffffffffffffffffffffffffffffff1673ffffffffffffffffffffffffffffffffffffffff16ff5b6000809054906101000a900473ffffffffffffffffffffffffffffffffffffffff1673ffffffffffffffffffffffffffffffffffffffff163373ffffffffffffffffffffffffffffffffffffffff16141515610df057600080fd5b600060016000836000191660001916815260200190815260200160002060030154111515610e1a57fe5b600060016000836000191660001916815260200190815260200160002060070160016101000a81548160ff0219169083151502179055506000600283815481101515610e6257fe5b906000526020600020906008020160070160016101000a81548160ff0219169083151502179055506000809054906101000a900473ffffffffffffffffffffffffffffffffffffffff1673ffffffffffffffffffffffffffffffffffffffff166108fc600160008460001916600019168152602001908152602001600020600301549081150290604051600060405180830381858888f193505050501515610f0957600080fd5b7f8c630ea441c9c8742a5273db9132d65d2df24b053dee7e4768f4789e9f3f9d05816000604051808360001916600019168152602001821515151581526020019250505060405180910390a15050565b60016020528060005260406000206000915090508060000154908060010160009054906101000a900473ffffffffffffffffffffffffffffffffffffffff169080600201908060030154908060040190806005019080600601908060070160009054906101000a900460ff16908060070160019054906101000a900460ff16905089565b600080610fe8611b5e565b6000610ff2611b5e565b610ffa611b5e565b611002611b5e565b600061100c611b72565b60003411151561101b57600080fd5b6040518060000190506040518091039020600019168d6040518082805190602001908083835b6020831015156110665780518252602082019150602081019050602083039250611041565b6001836020036101000a038019825116818451168082178552505050505050905001915050604051809103902060001916141515156110a457600080fd5b6040518060000190506040518091039020600019168b6040518082805190602001908083835b6020831015156110ef57805182526020820191506020810190506020830392506110ca565b6001836020036101000a0380198251168184511680821785525050505050509050019150506040518091039020600019161415151561112d57600080fd5b6040518060000190506040518091039020600019168a6040518082805190602001908083835b6020831015156111785780518252602082019150602081019050602083039250611153565b6001836020036101000a038019825116818451168082178552505050505050905001915050604051809103902060001916141515156111b657600080fd5b338d348c604051808573ffffffffffffffffffffffffffffffffffffffff1673ffffffffffffffffffffffffffffffffffffffff166c0100000000000000000000000002815260140184805190602001908083835b602083101515611230578051825260208201915060208101905060208303925061120b565b6001836020036101000a03801982511681845116808217855250505050505090500183815260200182805190602001908083835b6020831015156112895780518252602082019150602081019050602083039250611264565b6001836020036101000a0380198251168184511680821785525050505050509050019450505050506040518091039020915060405180600001905060405180910390206000191660016000846000191660001916815260200190815260200160002060020160405180828054600181600116156101000203166002900480156113495780601f10611327576101008083540402835291820191611349565b820191906000526020600020905b815481529060010190602001808311611335575b505091505060405180910390206000191614151561136357fe5b61012060405190810160405280836000191681526020013373ffffffffffffffffffffffffffffffffffffffff1681526020018e81526020013481526020018d81526020018c81526020018b8152602001600015158152602001600015158152509050806001600084600019166000191681526020019081526020016000206000820151816000019060001916905560208201518160010160006101000a81548173ffffffffffffffffffffffffffffffffffffffff021916908373ffffffffffffffffffffffffffffffffffffffff1602179055506040820151816002019080519060200190611455929190611bf4565b5060608201518160030155608082015181600401908051906020019061147c929190611bf4565b5060a0820151816005019080519060200190611499929190611bf4565b5060c08201518160060190805190602001906114b6929190611bf4565b5060e08201518160070160006101000a81548160ff0219169083151502179055506101008201518160070160016101000a81548160ff0219169083151502179055509050506002805480600101828161150f9190611c74565b916000526020600020906008020160008390919091506000820151816000019060001916905560208201518160010160006101000a81548173ffffffffffffffffffffffffffffffffffffffff021916908373ffffffffffffffffffffffffffffffffffffffff1602179055506040820151816002019080519060200190611598929190611bf4565b506060820151816003015560808201518160040190805190602001906115bf929190611bf4565b5060a08201518160050190805190602001906115dc929190611bf4565b5060c08201518160060190805190602001906115f9929190611bf4565b5060e08201518160070160006101000a81548160ff0219169083151502179055506101008201518160070160016101000a81548160ff0219169083151502179055505050507fbe51f18615f8b29499c081c3ac30fc5c4819fbd6534d3e9dd0cbf31db59eb1b381602001518260400151836060015184608001518560a001518660c001518760e00151886101000151604051808973ffffffffffffffffffffffffffffffffffffffff1673ffffffffffffffffffffffffffffffffffffffff16815260200180602001888152602001806020018060200180602001871515151581526020018615151515815260200185810385528c818151815260200191508051906020019080838360005b83811015611720578082015181840152602081019050611705565b50505050905090810190601f16801561174d5780820380516001836020036101000a031916815260200191505b5085810384528a818151815260200191508051906020019080838360005b8381101561178657808201518184015260208101905061176b565b50505050905090810190601f1680156117b35780820380516001836020036101000a031916815260200191505b50858103835289818151815260200191508051906020019080838360005b838110156117ec5780820151818401526020810190506117d1565b50505050905090810190601f1680156118195780820380516001836020036101000a031916815260200191505b50858103825288818151815260200191508051906020019080838360005b83811015611852578082015181840152602081019050611837565b50505050905090810190601f16801561187f5780820380516001836020036101000a031916815260200191505b509c5050505050505050505050505060405180910390a18181602001518260400151836060015184608001518560a001518660c0015184945082925081915080905098509850985098509850985098505050949950949992975094509450565b6000809054906101000a900473ffffffffffffffffffffffffffffffffffffffff1681565b6000809054906101000a900473ffffffffffffffffffffffffffffffffffffffff1673ffffffffffffffffffffffffffffffffffffffff163373ffffffffffffffffffffffffffffffffffffffff1614151561195f57600080fd5b60006001600083600019166000191681526020019081526020016000206003015411151561198957fe5b6001806000836000191660001916815260200190815260200160002060070160006101000a81548160ff02191690831515021790555060016002838154811015156119d057fe5b906000526020600020906008020160070160006101000a81548160ff0219169083151502179055505050565b6000600280549050905090565b6000809054906101000a900473ffffffffffffffffffffffffffffffffffffffff1673ffffffffffffffffffffffffffffffffffffffff163373ffffffffffffffffffffffffffffffffffffffff16141515611a6457600080fd5b600073ffffffffffffffffffffffffffffffffffffffff168173ffffffffffffffffffffffffffffffffffffffff1614151515611aa057600080fd5b8073ffffffffffffffffffffffffffffffffffffffff166000809054906101000a900473ffffffffffffffffffffffffffffffffffffffff1673ffffffffffffffffffffffffffffffffffffffff167f8be0079c531659141344cd1fd0a4f28419497f9722a3daafe3b4186f6b6457e060405160405180910390a3806000806101000a81548173ffffffffffffffffffffffffffffffffffffffff021916908373ffffffffffffffffffffffffffffffffffffffff16021790555050565b602060405190810160405280600081525090565b6101206040519081016040528060008019168152602001600073ffffffffffffffffffffffffffffffffffffffff168152602001611bae611ca6565b815260200160008152602001611bc2611ca6565b8152602001611bcf611ca6565b8152602001611bdc611ca6565b81526020016000151581526020016000151581525090565b828054600181600116156101000203166002900490600052602060002090601f016020900481019282601f10611c3557805160ff1916838001178555611c63565b82800160010185558215611c63579182015b82811115611c62578251825591602001919060010190611c47565b5b509050611c709190611cba565b5090565b815481835581811511611ca157600802816008028360005260206000209182019101611ca09190611cdf565b5b505050565b602060405190810160405280600081525090565b611cdc91905b80821115611cd8576000816000905550600101611cc0565b5090565b90565b611d9a91905b80821115611d96576000808201600090556001820160006101000a81549073ffffffffffffffffffffffffffffffffffffffff0219169055600282016000611d2d9190611d9d565b6003820160009055600482016000611d459190611d9d565b600582016000611d559190611d9d565b600682016000611d659190611d9d565b6007820160006101000a81549060ff02191690556007820160016101000a81549060ff021916905550600801611ce5565b5090565b90565b50805460018160011615610100020316600290046000825580601f10611dc35750611de2565b601f016020900490600052602060002090810190611de19190611cba565b5b505600a165627a7a72305820f2fbfdbdb1748f25f5ea0c63ccd94e179e710864d604e5c253b23c24252a36540029",
  "source": "pragma solidity ^0.4.15;\n\nimport 'zeppelin-solidity/contracts/ownership/Ownable.sol';\n\ncontract GoFreakingDoIt is Ownable {\n    struct Goal {\n        bytes32 hash;\n        address owner;\n        string description;\n        uint amount;\n        string supervisorEmail;\n        string creatorEmail;\n        string deadline;\n        bool emailSent;\n        bool completed;\n    }\n\n    mapping (bytes32 => Goal) public goals;\n    Goal[] public activeGoals;\n\n    event setGoalEvent (\n        address _owner,\n        string _description,\n        uint _amount,\n        string _supervisorEmail,\n        string _creatorEmail,\n        string _deadline,\n        bool _emailSent,\n        bool _completed\n    );\n\n    event setGoalSucceededEvent(bytes32 hash, bool _completed);\n    event setGoalFailedEvent(bytes32 hash, bool _completed);\n\n    function setGoal(string _description, string _supervisorEmail, string _creatorEmail, string _deadline) public payable returns (bytes32, address, string, uint, string, string, string) {\n        require(msg.value > 0);\n        require(keccak256(_description) != keccak256(\"\"));\n        require(keccak256(_creatorEmail) != keccak256(\"\"));\n        require(keccak256(_deadline) != keccak256(\"\"));\n\n        bytes32 hash = keccak256(msg.sender, _description, msg.value, _deadline);\n\n        assert(keccak256(goals[hash].description) == keccak256(\"\"));\n\n        Goal memory goal = Goal({\n            hash: hash,\n            owner: msg.sender,\n            description: _description,\n            amount: msg.value,\n            supervisorEmail: _supervisorEmail,\n            creatorEmail: _creatorEmail,\n            deadline: _deadline,\n            emailSent: false,\n            completed: false\n        });\n\n        goals[hash] = goal;\n        activeGoals.push(goal);\n\n        setGoalEvent(goal.owner, goal.description, goal.amount, goal.supervisorEmail, goal.creatorEmail, goal.deadline, goal.emailSent, goal.completed);\n\n        return (hash, goal.owner, goal.description, goal.amount, goal.supervisorEmail, goal.creatorEmail, goal.deadline);\n    }\n\n    function getGoalsCount() public constant returns (uint count) {\n        return activeGoals.length;\n    }\n\n    function setEmailSent(uint _index, bytes32 _hash) public onlyOwner {\n        assert(goals[_hash].amount > 0);\n\n        goals[_hash].emailSent = true;\n        activeGoals[_index].emailSent = true;\n    }\n\n    function setGoalSucceeded(uint _index, bytes32 _hash) public onlyOwner {\n        assert(goals[_hash].amount > 0);\n\n        goals[_hash].completed = true;\n        activeGoals[_index].completed = true;\n\n        goals[_hash].owner.transfer(goals[_hash].amount);\n\n        setGoalSucceededEvent(_hash, true);\n    }\n\n    function setGoalFailed(uint _index, bytes32 _hash) public onlyOwner {\n        assert(goals[_hash].amount > 0);\n\n        goals[_hash].completed = false;\n        activeGoals[_index].completed = false;\n\n        owner.transfer(goals[_hash].amount);\n\n        setGoalFailedEvent(_hash, false);\n    }\n\n    function() public payable {}\n\n    function kill() public onlyOwner { \n        selfdestruct(owner);\n    }\n}",
  "sourcePath": "/Users/macbook/Documents/Projects/go-freaking-do-it/contracts/GoFreakingDoIt.sol",
  "compiler": {
    "name": "solc",
    "version": "0.4.19+commit.c4cbbb05.Emscripten.clang"
  },
  "schemaVersion": "2.0.0",
  "updatedAt": "2018-03-30T14:02:20.086Z"
}